:020000020000FC
:100000000B41726D616768616E2D737200C00FE500
:100010000DBF04E00EBF94D088D002D086D0FFCFB1
:10002000F0E0E0E04591542F159115D082D05A951B
:10003000D9F708950AB3006F0ABB0BB30F70107F96
:10004000012B0BBBDB9A000000000000DB980AB319
:100050000F700ABB08951F930AB3006F0ABB0BB35E
:100060000170107F012B0BBBD99ADB9A00000000B6
:100070000000DB981F910F701295107F012B0BBBB6
:10008000D99ADB9A000000000000DB98D9980AB3E7
:100090000F700ABB08951F930AB3006F0ABB0BB31E
:1000A0000170107F012B0BBBDB9A000000000000E9
:1000B000DB981F910F701295107F012B0BBBDB9A01
:1000C000000000000000DB980AB30F700ABB08951F
:1000D0000AB30F700ABBD99ADA9ADB9A000009B307
:1000E000007F202FDB9800000000DB9A000009B39E
:1000F000007F0295202BDB98D998DA9808950AB3EF
:100100000F700ABBD998DA9ADB9A000009B3007F16
:10011000202FDB9800000000DB9A000009B3007F6D
:100120000295202BDB98DA980895E9DF2078E9F72B
:100130000895222433243A94F1F72A94D9F70895A4
:100140000EE00ABBF6DF10E275DFEFDF18E2A3DF97
:10015000ECDF1FE0A0DFE9DF11E09DDFE6DF16E066
:040160009ADF089585
:00000001FF
