:020000020000FC
:0200000002C03C
:1000040016C00FE50DBF04E00EBF00E084E001BBA5
:1000140082BB00EF8FE004BB85BB05B700E005BFE2
:100024000BB700640BBF789427D11BD1FFCFF89492
:10003400989B08C0999B1BC09A9B2EC09B9B41C058
:1000440078941895AC9A98990E947800AC98AD9AD7
:1000540098990E948800AD98AE9A98990E94980049
:10006400AE98AF9A98990E94A800AF98EACFAC9A3C
:1000740099990E947C00AC98AD9A99990E948C0041
:10008400AD98AE9A99990E949C00AE98AF9A9999AE
:100094000E94AC00AF98D5CFAC9A9A990E94800088
:1000A400AC98AD9A9A990E949000AD98AE9A9A999C
:1000B4000E94A000AE98AF9A9A990E94B000AF989F
:1000C400C0CFAC9A9B990E948400AC98AD9A9B993E
:1000D4000E949400AD98AE9A9B990E94A400AE9899
:1000E400AF9A9B990E94B400AF98ABCFBAD010E3FB
:1000F4004ED00895B6D011E34AD00895B2D012E399
:1001040046D00895AED013E342D00895AAD014E3A4
:100114003ED00895A6D015E33AD00895A2D016E3B0
:1001240036D008959ED017E332D008959AD018E3BC
:100134002ED0089596D019E32AD0089592D011E4D0
:1001440026D008958ED012E622D008958AD013E4E2
:100154001ED0089586D014E41AD0089582D015E6EE
:1001640016D008957ED016E612D008950AB3006F13
:100174000ABB0BB30F70107F012B0BBBDB9A000083
:1001840000000000DB980AB30F700ABB08951F93A8
:100194000AB3006F0ABB0BB30170107F012B0BBBBA
:1001A400D99ADB9A000000000000DB981F910F70C1
:1001B4001295107F012B0BBBD99ADB9A000000002B
:1001C4000000DB98D9980AB30F700ABB08951F93F7
:1001D4000AB3006F0ABB0BB30170107F012B0BBB7A
:1001E400DB9A000000000000DB981F910F7012954D
:1001F400107F012B0BBBDB9A000000000000DB9892
:100204000AB30F700ABB08950AB30F700ABBD99AD8
:10021400DA9ADB9A000009B3007F202FDB980000F4
:100224000000DB9A000009B3007F0295202BDB98C5
:10023400D998DA9808950AB30F700ABBD998DA9A54
:10024400DB9A000009B3007F202FDB980000000038
:10025400DB9A000009B3007F0295202BDB98DA9823
:100264000895E9DF2078E9F70895222433243A94A5
:10027400F1F72A94D9F708950EE00ABBF6DF10E2ED
:1002840075DFEFDF18E2A3DFECDF1FE0A0DFE9DFBB
:0C02940011E09DDFE6DF16E09ADF089520
:00000001FF
