:020000020000FC
:0200000005C039
:100004000C942A000C941D000FE50DBF04E00EBFF4
:1000140000E21CE001BB12BB00EF1FE004BB15BBF8
:100024000FEF07BB15B710E015BF2BB7206C2BBF24
:10003400789400C0FFCF30B3859B02C005C01895EB
:1000440010B318E212BBFBCF00B308E002BBF7CF3A
:10005400F894989B08C0999B1BC09A9B2EC09B9BAD
:1000640041C078941895AC9A98990E948900AC98EC
:10007400AD9A98990E949500AD98AE9A98990E946D
:10008400A100AE98AF9A98990E94AD00AF98EACFBC
:10009400AC9A99990E948C00AC98AD9A99990E9457
:1000A4009800AD98AE9A99990E94A400AE98AF9A20
:1000B40099990E94B000AF98D5CFAC9A9A990E94B2
:1000C4008F00AC98AD9A9A990E949B00AD98AE9A15
:1000D4009A990E94A700AE98AF9A9A990E94B30089
:1000E400AF98C0CFAC9A9B990E949200AC98AD9AFD
:1000F4009B990E949E00AD98AE9A9B990E94AA007B
:10010400AE98AF9A9B990E94B600AF98ABCF0FE31D
:1001140008BB089506E008BB08950BE508BB0895E5
:100124000FE408BB089506E608BB08950DE608BB76
:1001340008950DE708BB089507E008BB08950FE78D
:1001440008BB08950FE608BB089507E708BB0895A8
:100154000CE708BB089501E608BB08950EE508BB4B
:0E016400089509E708BB089501E708BB089558
:00000001FF
