:020000020000FC
:020000002FC00F
:0200040048C0F2
:100060000FE50DBF04E00EBF06EA00BD0CE00AB9C3
:1000700000E000BD0FEC09B900EF04BB1FE015BBA9
:1000800000E001BB14E012BB00E40BBF32E035BF5F
:10009000789400C0FFCF989B59C000C0999901C0C7
:1000A00042C09A9901C01DC000C01FE115BB9B9BB7
:1000B00003C087E30E94C2001FE215BB9B9B03C0E5
:1000C00084E30E94C2001FE415BB9B9B03C081E335
:1000D0000E94C2001FE815BB9B9B00008FE60E9498
:1000E000C2001FE115BB9A9B02C088E34BC01FE210
:1000F00015BB9A9B03C085E30E94C2001FE415BB99
:100100009A9B03C082E30E94C2001FE815BB9A9B22
:10011000000080E30E94C2001FE215BB999B09C04A
:1001200086E30E94C2001FE115BB999BF5CF89E3CE
:1001300029C01FE415BB999B03C083E30E94C20042
:100140001FE815BB999B00008DE31CC01FE115BB88
:10015000989B03C085E20E94C2001FE215BB989BDA
:1001600003C08AE20E94C2001FE415BB989B03C033
:100170008DE20E94C2001FE815BB989B00008BE235
:100180000E94C2003FE035BB5D9B84CF8CB91895BF
:00000001FF
