:020000020000FC
:040000000C941E003E
:100038000C943D0004E00EBF0FE50DBF90E000E119
:1000480001BB23D18C9A0FE806B902E407B9369AA6
:100058007894913039F0923041F005B700E505BF4A
:100068008895F7CF389A369AF4CF3998359A369AD0
:10007800F0CF05B7097F05BF903031F1913069F1B4
:1000880093300FB701FF9395933059F0189551E0CD
:100098006FEF7FEF7A95F1F76A95D9F75A95C1F71F
:1000A800189544B155B10E948300455C5040252FF6
:1000B800142F0E949000432F50E011E091D00E942D
:1000C800A6000E944B00E2CF44B155B1342E452E14
:1000D8000E94A6000E944B00D1CF44B155B1542EC6
:1000E800652E0E94A6000E944B00CACF451558F005
:1000F80089F070F408C0431558F060F408C056152C
:1001080010F0A1F328F4541518F0A9F318F4089581
:100118009498FDCF949AFBCF30E006E0039F339587
:10012800010608F4D8F33A95039F3395120610F4A4
:10013800D8F33A95039F3395010608F4D8F33A9516
:100148003A9508958FE2839540515742E0F77AE354
:100158007A9548515C4FE0F3172F22D06FE26395F0
:1001680044565040E0F7162F1BD05AE35A95465F85
:10017800E8F3405D152F14D0142F12D0089504B35E
:10018800006F04BB05B30F70107F012B05BBAB9A42
:10019800000000000000AB9804B30F7004BB089582
:1001A8001F9304B3006F04BB05B30170107F012BCC
:1001B80005BBA99AAB9A000000000000AB981F91FC
:1001C8000F701295107F012B05BBA99AAB9A0000FE
:1001D80000000000AB98A99804B30F7004BB089501
:1001E8001F9304B3006F04BB05B30170107F012B8C
:1001F80005BBAB9A000000000000AB981F910F7080
:100208001295107F012B05BBAB9A0000000000007F
:10021800AB9804B30F7004BB089504B30F7004BB0C
:10022800A99AAA9AAB9A000003B3007F202FAB9833
:1002380000000000AB9A000003B3007F0295202B5A
:10024800AB98A998AA98089504B30F7004BBA9980D
:10025800AA9AAB9A000003B3007F202FAB98000046
:100268000000AB9A000003B3007F0295202BAB98E7
:10027800AA980895E9DF2078E9F70895222433241D
:100288003A94F1F72A94D9F708950EE004BBF6DF03
:1002980010E275DFEFDF18E2A3DFECDF1FE0A0DF7D
:0E02A800E9DF11E09DDFE6DF16E09ADF089542
:00000001FF
