:020000020000FC
:100000003F065B4F666D7D077F6F04E00EBF0FE517
:100010000DBF00E339E401BB32BB00C010B3869BC7
:100020000AC0839B02C004C0F9CF20E222BBF6CFF6
:1000300020E022BBF3CF8BEF20E122BB0E942A00FD
:1000400020E022BB0E942A008395B1F710B3869965
:10005000E5CFF1CF40E15DE76AEF6A950000E9F78F
:100060005A95D1F74A95B9F708951FEF17BBF0E0FD
:10007000E0E036EF00C0159118BB0E942A003395CE
:04008000D1F7F3CFF2
:00000001FF
